:100000000C943C000C9459000C9459000C94590029
:100010000C9459000C9459000C9459000C945900FC
:100020000C9459000C9459000C9459000C945900EC
:100030000C9459000C9459000C9459000C945900DC
:100040000C94B2020C9459000C94E9020C945900DF
:100050000C9459000C948D020C9459000C94590086
:100060000C9459000C945900650070007E008C00BF
:100070009A00A800B600BF0011241FBECFEFD8E041
:10008000DEBFCDBF11E0A0E0B1E0E6ECFAE002C0D7
:1000900005900D92AC30B107D9F721E0ACE0B1E0AA
:1000A00001C01D92A232B207E1F70E9441020C94F6
:1000B00061050C94000090E08830910508F067C05D
:1000C000FC01EC5CFF4F0C944705EEE7F0E080810B
:1000D00081608083ECE7F0E08081887F808357C077
:1000E000ECE7F0E08081887F80838081816080837D
:1000F000EEE7F0E080818260808349C0ECE7F0E0C9
:100100008081887F8083808182608083EEE7F0E059
:100110008081846080833BC0ECE7F0E08081887F51
:100120008083808183608083EEE7F0E08081886057
:1001300080832DC0ECE7F0E08081887F8083808120
:1001400084608083EEE7F0E08081806180831FC05F
:10015000ECE7F0E08081887F808380818560808308
:10016000EEE7F0E080818062808311C0ECE7F0E090
:100170008081887F808380818660808308C0ECE7EF
:10018000F0E08081887F8083808187608083ECE7D6
:10019000F0E0808180628083808180648083EAE7F0
:1001A000F0E08081886080838081876080838081A7
:1001B00080688083089580FF04C09BB190619BB9E3
:1001C00003C09BB19F7E9BB981FF04C09BB190622D
:1001D0009BB903C09BB19F7D9BB982FF04C09BB1BB
:1001E00090649BB903C09BB19F7B9BB983FF04C004
:1001F0009BB190689BB903C09BB19F779BB984FF6B
:1002000004C095B1916095B903C095B19E7F95B931
:1002100085FF04C095B1926095B903C095B19D7FEB
:1002200095B986FF04C095B1946095B903C095B1A6
:100230009B7F95B9882324F485B1886085B908959A
:1002400085B1877F85B908959BB19B7F9BB90E943B
:10025000DB008BB188608BB985E08A95F1F70000EF
:100260008BB1877F8BB98FE79EE30197F1F700C0D1
:10027000000008958AB18C6F8AB98BB18BB984B1B3
:100280008F6084B985B185B92FEF89EF90E0215057
:1002900080409040E1F700C0000088E30E94240104
:1002A0008FE19EE40197F1F700C000008EE00E940C
:1002B00024018FE39FE10197F1F700C0000081E086
:1002C0000E9424018FE39FE10197F1F700C0000035
:1002D00086E00E94240108959BB194609BB90E941E
:1002E000DB008BB188608BB985E08A95F1F700005F
:1002F0008BB1877F8BB98FE39FE10197F1F700C046
:10030000000008950F931F93CF93DF938C01C0E0FB
:10031000D0E003C00E946C012196F801EC0FFD1F94
:1003200080818111F7CFDF91CF911F910F910895B7
:10033000613021F481580E9424010895623019F43B
:1003400081540E9424010895F89485E00E945B0086
:1003500086E00E945B007894089585B5856085BD30
:100360008CED86BDEEE6F0E08081816080830895AB
:100370008F929F92AF92BF92CF92DF92EF92FF92B5
:10038000CF93DF93EC0170E080E090E00E943A04AC
:1003900020E030E040EA50E40E94C60420E030E073
:1003A0004FE753E40E9490034B015C010E9402045A
:1003B0006B017C01072E000C880B990B0E943A04FC
:1003C0009B01AC01C501B4010E94230320E030E091
:1003D00048EC52E40E94C6040E94020420E32C0D63
:1003E00028832EE22983CB016AE070E00E94330566
:1003F000605D6A83805D8B8386E58C831D82DF91DF
:10040000CF91FF90EF90DF90CF90BF90AF909F90F3
:100410008F900895FC01662324F4619581E090E0BB
:1004200002C080E090E0892BB9F08DE2808397E6EE
:100430006902912D11249595959567FD939580E31B
:10044000890F8183990F892F880F880F980F691B57
:10045000605D62831382089597E66902912D1124ED
:100460009595959567FD939580E3890F8083990F06
:10047000892F880F880F980F691B605D6183128236
:1004800008950E94A4010E943A010E94AD0181E0FA
:100490000E94060361E081E00E94980180E091E003
:1004A0000E94820161E086E00E94980184E091E070
:1004B0000E94820161E08BE00E94980188E091E057
:1004C0000E94820160910F0184E191E00E94B801D5
:1004D00060910E018BE191E00E94B80160910C01E6
:1004E00080E191E00E940A0262E081E00E949801AE
:1004F00084E191E00E94820162E086E00E9498011E
:100500008BE191E00E94820162E08BE00E94980101
:1005100080E191E00E948201D5CF1F920F920FB629
:100520000F9211248F93EF93FF9380910D018823F5
:1005300019F0813031F009C08091790080930F016A
:1005400004C08091790080930E01EAE7F0E0808199
:1005500080618083FF91EF918F910F900FBE0F907C
:100560001F9018951F920F920FB60F9211248F9320
:10057000EF93FF9380910D01882319F0813069F08A
:1005800016C081E080930D01ECE7F0E08081887F68
:1005900080838081856080830AC010920D01ECE722
:1005A000F0E08081887F8083808186608083EAE7B5
:1005B000F0E08081806480838CED86BD85B38160AE
:1005C00085BBFF91EF918F910F900FBE0F901F9001
:1005D00018951F920F920FB60F9211248F9380914E
:1005E000C6008B3231F480910C018F5F80930C0137
:1005F00007C08D3229F480910C01815080930C0149
:100600008F910F900FBE0F901F9018958130D1F4ED
:100610008AB18E7F8AB98AB182608AB91092C0008D
:10062000E1ECF0E01082808188698083E2ECF0E008
:10063000108280818660808387E690E09093C50079
:100640008093C40008955058BB27AA270E943B03FB
:100650000C948C040E947E0438F00E94850420F0E3
:1006600039F49F3F19F426F40C947B040EF4E095C2
:10067000E7FB0C947504E92F0E949D0458F3BA1708
:10068000620773078407950720F079F4A6F50C94A8
:10069000BF040EF4E0950B2EBA2FA02D0B01B9016B
:1006A00090010C01CA01A0011124FF27591B99F0E8
:1006B000593F50F4503E68F11A16F040A22F232FF4
:1006C000342F4427585FF3CF469537952795A79544
:1006D000F0405395C9F77EF41F16BA0B620B730BEB
:1006E000840BBAF09150A1F0FF0FBB1F661F771F5C
:1006F000881FC2F70EC0BA0F621F731F841F48F411
:10070000879577956795B795F7959E3F08F0B0CF99
:100710009395880F08F09927EE0F97958795089580
:100720000E94A4030C948C040E94850458F00E943B
:100730007E0440F029F45F3F29F00C9475045111B8
:100740000C94C0040C947B040E949D0468F39923CC
:10075000B1F3552391F3951B550BBB27AA276217BD
:100760007307840738F09F5F5F4F220F331F441FCA
:10077000AA1FA9F335D00E2E3AF0E0E832D09150FE
:100780005040E695001CCAF72BD0FE2F29D0660FEB
:10079000771F881FBB1F261737074807AB07B0E82E
:1007A00009F0BB0B802DBF01FF2793585F4F3AF034
:1007B0009E3F510578F00C9475040C94C0045F3F83
:1007C000E4F3983ED4F3869577956795B795F795BA
:1007D0009F5FC9F7880F911D9695879597F90895A2
:1007E000E1E0660F771F881FBB1F6217730784073E
:1007F000BA0720F0621B730B840BBA0BEE1F88F74D
:10080000E09508950E9409046894B1110C94C00405
:1008100008950E94A50488F09F5798F0B92F992752
:10082000B751B0F0E1F0660F771F881F991F1AF0DB
:10083000BA95C9F714C0B13091F00E94BF04B1E07D
:1008400008950C94BF04672F782F8827B85F39F07C
:10085000B93FCCF3869577956795B395D9F73EF474
:1008600090958095709561957F4F8F4F9F4F08951C
:10087000E89409C097FB3EF490958095709561953A
:100880007F4F8F4F9F4F9923A9F0F92F96E9BB27F0
:100890009395F695879577956795B795F111F8CF6C
:1008A000FAF4BB0F11F460FF1BC06F5F7F4F8F4FD7
:1008B0009F4F16C0882311F096E911C0772321F0CD
:1008C0009EE8872F762F05C0662371F096E8862F65
:1008D00070E060E02AF09A95660F771F881FDAF7BC
:1008E000880F9695879597F9089597F99F6780E8FF
:1008F00070E060E008959FEF80EC089500240A9472
:100900001616170618060906089500240A941216EA
:100910001306140605060895092E0394000C11F41D
:10092000882352F0BB0F40F4BF2B11F460FF04C0CA
:100930006F5F7F4F8F4F9F4F089557FD9058440F23
:10094000551F59F05F3F71F04795880F97FB991F2E
:1009500061F09F3F79F087950895121613061406EB
:10096000551FF2CF4695F1DF08C016161706180678
:10097000991FF1CF86957105610508940895E89453
:10098000BB2766277727CB0197F908950E94D904E2
:100990000C948C040E947E0438F00E94850420F0A0
:1009A000952311F00C9475040C947B0411240C9481
:1009B000C0040E949D0470F3959FC1F3950F50E011
:1009C000551F629FF001729FBB27F00DB11D639F01
:1009D000AA27F00DB11DAA1F649F6627B00DA11DA7
:1009E000661F829F2227B00DA11D621F739FB00D4D
:1009F000A11D621F839FA00D611D221F749F3327BD
:100A0000A00D611D231F849F600D211D822F762F55
:100A10006A2F11249F5750409AF0F1F088234AF032
:100A2000EE0FFF1FBB1F661F771F881F915050409E
:100A3000A9F79E3F510580F00C9475040C94C004F6
:100A40005F3FE4F3983ED4F3869577956795B79525
:100A5000F795E7959F5FC1F7FE2B880F911D96953F
:100A6000879597F9089597FB072E16F4009407D001
:100A700077FD09D00E944D0507FC05D03EF4909506
:100A800081959F4F0895709561957F4F0895EE0F62
:100A9000FF1F0590F491E02D0994AA1BBB1B51E1A7
:100AA00007C0AA1FBB1FA617B70710F0A61BB70BDE
:100AB000881F991F5A95A9F780959095BC01CD0183
:060AC0000895F894FFCF39
:0C0AC60053313A0053323A0053333A00E7
:00000001FF
